{
  "contractName": "CredentialVerification",
  "abi": [
    {
      "anonymous": false,
      "inputs": [
        {
          "indexed": true,
          "internalType": "address",
          "name": "holder",
          "type": "address"
        },
        {
          "indexed": false,
          "internalType": "bytes32",
          "name": "credentialHash",
          "type": "bytes32"
        },
        {
          "indexed": false,
          "internalType": "uint256",
          "name": "timestamp",
          "type": "uint256"
        }
      ],
      "name": "CredentialIssued",
      "type": "event"
    },
    {
      "anonymous": false,
      "inputs": [
        {
          "indexed": true,
          "internalType": "address",
          "name": "holder",
          "type": "address"
        },
        {
          "indexed": false,
          "internalType": "bytes32",
          "name": "credentialHash",
          "type": "bytes32"
        },
        {
          "indexed": false,
          "internalType": "uint256",
          "name": "timestamp",
          "type": "uint256"
        }
      ],
      "name": "CredentialRevoked",
      "type": "event"
    },
    {
      "anonymous": false,
      "inputs": [
        {
          "indexed": true,
          "internalType": "address",
          "name": "holder",
          "type": "address"
        },
        {
          "indexed": false,
          "internalType": "bytes32",
          "name": "oldCredentialHash",
          "type": "bytes32"
        },
        {
          "indexed": false,
          "internalType": "bytes32",
          "name": "newCredentialHash",
          "type": "bytes32"
        },
        {
          "indexed": false,
          "internalType": "uint256",
          "name": "timestamp",
          "type": "uint256"
        }
      ],
      "name": "CredentialUpdated",
      "type": "event"
    },
    {
      "inputs": [
        {
          "internalType": "address",
          "name": "_holder",
          "type": "address"
        },
        {
          "internalType": "string",
          "name": "_credentialHash",
          "type": "string"
        }
      ],
      "name": "issueCredential",
      "outputs": [],
      "stateMutability": "nonpayable",
      "type": "function"
    },
    {
      "inputs": [
        {
          "internalType": "address",
          "name": "_holder",
          "type": "address"
        }
      ],
      "name": "getCredentials",
      "outputs": [
        {
          "components": [
            {
              "internalType": "address",
              "name": "issuer",
              "type": "address"
            },
            {
              "internalType": "bytes32",
              "name": "credentialHash",
              "type": "bytes32"
            },
            {
              "internalType": "uint256",
              "name": "timestamp",
              "type": "uint256"
            },
            {
              "internalType": "bool",
              "name": "isRevoked",
              "type": "bool"
            }
          ],
          "internalType": "struct CredentialVerification.Credential[]",
          "name": "",
          "type": "tuple[]"
        }
      ],
      "stateMutability": "view",
      "type": "function",
      "constant": true
    },
    {
      "inputs": [
        {
          "internalType": "address",
          "name": "_holder",
          "type": "address"
        },
        {
          "internalType": "string",
          "name": "_credentialHash",
          "type": "string"
        }
      ],
      "name": "verifyCredential",
      "outputs": [
        {
          "internalType": "bool",
          "name": "",
          "type": "bool"
        }
      ],
      "stateMutability": "view",
      "type": "function",
      "constant": true
    },
    {
      "inputs": [
        {
          "internalType": "address",
          "name": "_holder",
          "type": "address"
        },
        {
          "internalType": "uint256",
          "name": "_index",
          "type": "uint256"
        }
      ],
      "name": "revokeCredential",
      "outputs": [],
      "stateMutability": "nonpayable",
      "type": "function"
    },
    {
      "inputs": [
        {
          "internalType": "address",
          "name": "_holder",
          "type": "address"
        },
        {
          "internalType": "uint256",
          "name": "_index",
          "type": "uint256"
        },
        {
          "internalType": "string",
          "name": "_newCredentialHash",
          "type": "string"
        }
      ],
      "name": "updateCredential",
      "outputs": [],
      "stateMutability": "nonpayable",
      "type": "function"
    }
  ],
  "bytecode": "0x608060405234801561001057600080fd5b50610a30806100206000396000f3fe608060405234801561001057600080fd5b50600436106100575760003560e01c8063209c7ad11461005c5780635d7c13b8146100855780637106b2fc1461009a57806384270608146100ad57806390c7c49c146100cd575b600080fd5b61006f61006a3660046107e5565b6100e0565b60405161007c9190610957565b60405180910390f35b61009861009336600461085a565b610244565b005b6100986100a8366004610831565b610445565b6100c06100bb3660046107c4565b6105a2565b60405161007c91906108e8565b6100986100db3660046107e5565b610646565b600080826040516020016100f491906108af565b60408051601f1981840301815282825280516020918201206001600160a01b038816600090815280835283812080548085028701850190955284865291955093929091849084015b8282101561019e576000848152602090819020604080516080810182526004860290920180546001600160a01b03168352600180820154848601526002820154928401929092526003015460ff1615156060830152908352909201910161013c565b50505050905060005b815181101561023657828282815181106101d157634e487b7160e01b600052603260045260246000fd5b602002602001015160200151148015610213575081818151811061020557634e487b7160e01b600052603260045260246000fd5b602002602001015160600151155b15610224576001935050505061023e565b8061022e816109bd565b9150506101a7565b506000925050505b92915050565b6001600160a01b03831660009081526020819052604090208054849184918290811061028057634e487b7160e01b600052603260045260246000fd5b60009182526020909120600490910201546001600160a01b031633146102c15760405162461bcd60e51b81526004016102b890610986565b60405180910390fd5b6000836040516020016102d491906108af565b6040516020818303038152906040528051906020012090506000806000886001600160a01b03166001600160a01b03168152602001908152602001600020868154811061033157634e487b7160e01b600052603260045260246000fd5b906000526020600020906004020160010154905081600080896001600160a01b03166001600160a01b03168152602001908152602001600020878154811061038957634e487b7160e01b600052603260045260246000fd5b90600052602060002090600402016001018190555042600080896001600160a01b03166001600160a01b0316815260200190815260200160002087815481106103e257634e487b7160e01b600052603260045260246000fd5b906000526020600020906004020160020181905550866001600160a01b03167f203a848a9c2030388f8b2899ad923d56d3917236dc1330f3050e3350feadefc482844260405161043493929190610962565b60405180910390a250505050505050565b6001600160a01b03821660009081526020819052604090208054839183918290811061048157634e487b7160e01b600052603260045260246000fd5b60009182526020909120600490910201546001600160a01b031633146104b95760405162461bcd60e51b81526004016102b890610986565b6001600160a01b0384166000908152602081905260409020805460019190859081106104f557634e487b7160e01b600052603260045260246000fd5b60009182526020808320600492909202909101600301805460ff1916931515939093179092556001600160a01b038616808252918190526040902080547ffa46632b428a154e3da420f1e7bbb0784bcd28e6ca914ea5e8e9a8e29c2175a891908690811061057357634e487b7160e01b600052603260045260246000fd5b90600052602060002090600402016001015442604051610594929190610978565b60405180910390a250505050565b6001600160a01b038116600090815260208181526040808320805482518185028101850190935280835260609492939192909184015b8282101561063a576000848152602090819020604080516080810182526004860290920180546001600160a01b03168352600180820154848601526002820154928401929092526003015460ff161515606083015290835290920191016105d8565b5050505090505b919050565b60008160405160200161065991906108af565b60408051808303601f190181528282528051602091820120608084018352338452818401818152428585018181526000606088018181526001600160a01b038c8116808452838952898420805460018082018355918652999094208b516004909a020180546001600160a01b0319169990921698909817815594519185019190915590516002840155516003909201805460ff191692151592909217909155925190945090917f266d5d1db5669b001451ba44353e35547ee39964af029c43340fe64dd3f9ee6d91610594918691610978565b80356001600160a01b038116811461064157600080fd5b600082601f830112610753578081fd5b813567ffffffffffffffff8082111561076e5761076e6109e4565b604051601f8301601f191681016020018281118282101715610792576107926109e4565b6040528281528483016020018610156107a9578384fd5b82602086016020830137918201602001929092529392505050565b6000602082840312156107d5578081fd5b6107de8261072c565b9392505050565b600080604083850312156107f7578081fd5b6108008361072c565b9150602083013567ffffffffffffffff81111561081b578182fd5b61082785828601610743565b9150509250929050565b60008060408385031215610843578182fd5b61084c8361072c565b946020939093013593505050565b60008060006060848603121561086e578081fd5b6108778461072c565b925060208401359150604084013567ffffffffffffffff811115610899578182fd5b6108a586828701610743565b9150509250925092565b60008251815b818110156108cf57602081860181015185830152016108b5565b818111156108dd5782828501525b509190910192915050565b602080825282518282018190526000919060409081850190868401855b8281101561094a57815180516001600160a01b031685528681015187860152858101518686015260609081015115159085015260809093019290850190600101610905565b5091979650505050505050565b901515815260200190565b9283526020830191909152604082015260600190565b918252602082015260400190565b60208082526019908201527f4e6f7420617574686f72697a6564206173206973737565722e00000000000000604082015260600190565b60006000198214156109dd57634e487b7160e01b81526011600452602481fd5b5060010190565b634e487b7160e01b600052604160045260246000fdfea26469706673582212207138319515150b2ae892e7e61094e4a7962c624e5f2580e3f484cd06550a661a64736f6c63430008000033",
  "immutableReferences": {},
  "source": "// SPDX-License-Identifier: MIT\r\npragma solidity ^0.8.0;\r\n\r\ncontract CredentialVerification {\r\n    \r\n    struct Credential {\r\n        address issuer;\r\n        bytes32 credentialHash; \r\n        uint256 timestamp;\r\n        bool isRevoked;\r\n    }\r\n\r\n    mapping(address => Credential[]) private credentials;\r\n\r\n    event CredentialIssued(address indexed holder, bytes32 credentialHash, uint256 timestamp);\r\n    event CredentialRevoked(address indexed holder, bytes32 credentialHash, uint256 timestamp);\r\n    event CredentialUpdated(address indexed holder, bytes32 oldCredentialHash, bytes32 newCredentialHash, uint256 timestamp);\r\n\r\n    modifier onlyIssuer(address _holder, uint256 _index) {\r\n        require(msg.sender == credentials[_holder][_index].issuer, \"Not authorized as issuer.\");\r\n        _;\r\n    }\r\n\r\n    /**\r\n     * @dev Function to issue a credential to a holder\r\n     * @param _holder The address of the credential holder\r\n     * @param _credentialHash The hash of the credential data (e.g., generated from details)\r\n     */\r\n    function issueCredential(address _holder, string memory _credentialHash) public {\r\n        bytes32 credentialHash = keccak256(abi.encodePacked(_credentialHash)); \r\n\r\n        Credential memory newCredential = Credential({\r\n            issuer: msg.sender,\r\n            credentialHash: credentialHash,\r\n            timestamp: block.timestamp,\r\n            isRevoked: false\r\n        });\r\n        \r\n        credentials[_holder].push(newCredential);\r\n        \r\n        emit CredentialIssued(_holder, credentialHash, block.timestamp);\r\n    }\r\n\r\n    /**\r\n     * @dev Function to retrieve credentials for a holder\r\n     * @param _holder The address of the credential holder\r\n     * @return Array of Credential structs associated with the holder\r\n     */\r\n    function getCredentials(address _holder) public view returns (Credential[] memory) {\r\n        return credentials[_holder];\r\n    }\r\n\r\n    /**\r\n     * @dev Verifies if a given credential hash exists and is not revoked for a holder\r\n     * @param _holder The address of the credential holder\r\n     * @param _credentialHash The credential hash to verify\r\n     * @return true if the credential exists and is not revoked, otherwise false\r\n     */\r\n    function verifyCredential(address _holder, string memory _credentialHash) public view returns (bool) {\r\n        bytes32 credentialHash = keccak256(abi.encodePacked(_credentialHash));\r\n        Credential[] memory holderCredentials = credentials[_holder];\r\n        \r\n        for (uint256 i = 0; i < holderCredentials.length; i++) {\r\n            if (holderCredentials[i].credentialHash == credentialHash && !holderCredentials[i].isRevoked) {\r\n                return true;\r\n            }\r\n        }\r\n        \r\n        return false;\r\n    }\r\n\r\n    /**\r\n     * @dev Function to revoke a credential\r\n     * @param _holder The address of the credential holder\r\n     * @param _index The index of the credential to revoke\r\n     */\r\n    function revokeCredential(address _holder, uint256 _index) public onlyIssuer(_holder, _index) {\r\n        credentials[_holder][_index].isRevoked = true;\r\n        emit CredentialRevoked(_holder, credentials[_holder][_index].credentialHash, block.timestamp);\r\n    }\r\n\r\n    /**\r\n     * @dev Function to update a credential\r\n     * @param _holder The address of the credential holder\r\n     * @param _index The index of the credential to update\r\n     * @param _newCredentialHash The new hash of the credential data\r\n     */\r\n    function updateCredential(address _holder, uint256 _index, string memory _newCredentialHash) public onlyIssuer(_holder, _index) {\r\n        bytes32 newCredentialHash = keccak256(abi.encodePacked(_newCredentialHash));\r\n        bytes32 oldCredentialHash = credentials[_holder][_index].credentialHash;\r\n\r\n        credentials[_holder][_index].credentialHash = newCredentialHash;\r\n        credentials[_holder][_index].timestamp = block.timestamp;\r\n        \r\n        emit CredentialUpdated(_holder, oldCredentialHash, newCredentialHash, block.timestamp);\r\n    }\r\n}\r\n",
  "sourcePath": "/mnt/d/phence-app/Decentralized-credential-verification/contracts/CredentialVerification.sol",
  "compiler": {
    "name": "solc",
    "version": "0.8.0+commit.c7dfd78e.Emscripten.clang"
  },
  "schemaVersion": "3.4.4",
  "updatedAt": "2024-11-18T04:26:29.224Z",
  "networkType": "ethereum",
  "devdoc": {
    "kind": "dev",
    "methods": {
      "getCredentials(address)": {
        "details": "Function to retrieve credentials for a holder",
        "params": {
          "_holder": "The address of the credential holder"
        },
        "returns": {
          "_0": "Array of Credential structs associated with the holder"
        }
      },
      "issueCredential(address,string)": {
        "details": "Function to issue a credential to a holder",
        "params": {
          "_credentialHash": "The hash of the credential data (e.g., generated from details)",
          "_holder": "The address of the credential holder"
        }
      },
      "revokeCredential(address,uint256)": {
        "details": "Function to revoke a credential",
        "params": {
          "_holder": "The address of the credential holder",
          "_index": "The index of the credential to revoke"
        }
      },
      "updateCredential(address,uint256,string)": {
        "details": "Function to update a credential",
        "params": {
          "_holder": "The address of the credential holder",
          "_index": "The index of the credential to update",
          "_newCredentialHash": "The new hash of the credential data"
        }
      },
      "verifyCredential(address,string)": {
        "details": "Verifies if a given credential hash exists and is not revoked for a holder",
        "params": {
          "_credentialHash": "The credential hash to verify",
          "_holder": "The address of the credential holder"
        },
        "returns": {
          "_0": "true if the credential exists and is not revoked, otherwise false"
        }
      }
    },
    "version": 1
  },
  "userdoc": {
    "kind": "user",
    "methods": {},
    "version": 1
  }
}