{
  "contractName": "CredentialVerification",
  "abi": [
    {
      "anonymous": false,
      "inputs": [
        {
          "indexed": true,
          "internalType": "address",
          "name": "holder",
          "type": "address"
        },
        {
          "indexed": false,
          "internalType": "string",
          "name": "credentialHash",
          "type": "string"
        },
        {
          "indexed": false,
          "internalType": "uint256",
          "name": "timestamp",
          "type": "uint256"
        }
      ],
      "name": "CredentialIssued",
      "type": "event"
    },
    {
      "inputs": [
        {
          "internalType": "address",
          "name": "_holder",
          "type": "address"
        },
        {
          "internalType": "string",
          "name": "_credentialHash",
          "type": "string"
        }
      ],
      "name": "issueCredential",
      "outputs": [],
      "stateMutability": "nonpayable",
      "type": "function"
    },
    {
      "inputs": [
        {
          "internalType": "address",
          "name": "_holder",
          "type": "address"
        }
      ],
      "name": "getCredentials",
      "outputs": [
        {
          "components": [
            {
              "internalType": "address",
              "name": "issuer",
              "type": "address"
            },
            {
              "internalType": "string",
              "name": "credentialHash",
              "type": "string"
            },
            {
              "internalType": "uint256",
              "name": "timestamp",
              "type": "uint256"
            }
          ],
          "internalType": "struct CredentialVerification.Credential[]",
          "name": "",
          "type": "tuple[]"
        }
      ],
      "stateMutability": "view",
      "type": "function",
      "constant": true
    },
    {
      "inputs": [
        {
          "internalType": "address",
          "name": "_holder",
          "type": "address"
        },
        {
          "internalType": "string",
          "name": "_credentialHash",
          "type": "string"
        }
      ],
      "name": "verifyCredential",
      "outputs": [
        {
          "internalType": "bool",
          "name": "",
          "type": "bool"
        }
      ],
      "stateMutability": "view",
      "type": "function",
      "constant": true
    }
  ],
  "bytecode": "0x608060405234801561001057600080fd5b50610881806100206000396000f3fe608060405234801561001057600080fd5b50600436106100415760003560e01c8063209c7ad114610046578063842706081461006f57806390c7c49c1461008f575b600080fd5b610059610054366004610583565b6100a4565b6040516100669190610708565b60405180910390f35b61008261007d366004610562565b610274565b604051610066919061067f565b6100a261009d366004610583565b61039a565b005b6001600160a01b03821660009081526020818152604080832080548251818502810185019093528083528493849084015b828210156101b957600084815260209081902060408051606081019091526003850290910180546001600160a01b03168252600181018054929391929184019161011e906107d3565b80601f016020809104026020016040519081016040528092919081815260200182805461014a906107d3565b80156101975780601f1061016c57610100808354040283529160200191610197565b820191906000526020600020905b81548152906001019060200180831161017a57829003601f168201915b50505050508152602001600282015481525050815260200190600101906100d5565b50505050905060005b815181101561026757836040516020016101dc9190610663565b6040516020818303038152906040528051906020012082828151811061021257634e487b7160e01b600052603260045260246000fd5b60200260200101516020015160405160200161022e9190610663565b6040516020818303038152906040528051906020012014156102555760019250505061026e565b8061025f8161080e565b9150506101c2565b5060009150505b92915050565b6001600160a01b038116600090815260208181526040808320805482518185028101850190935280835260609492939192909184015b8282101561038e57600084815260209081902060408051606081019091526003850290910180546001600160a01b0316825260018101805492939192918401916102f3906107d3565b80601f016020809104026020016040519081016040528092919081815260200182805461031f906107d3565b801561036c5780601f106103415761010080835404028352916020019161036c565b820191906000526020600020905b81548152906001019060200180831161034f57829003601f168201915b50505050508152602001600282015481525050815260200190600101906102aa565b5050505090505b919050565b336103c05760405162461bcd60e51b81526004016103b790610735565b60405180910390fd5b6001600160a01b0382166103e65760405162461bcd60e51b81526004016103b79061076c565b60408051606081018252338152602080820184815242838501526001600160a01b03868116600090815280845294852080546001808201835591875295849020855160039097020180546001600160a01b031916969092169590951781559051805193948594929361045d939185019201906104b2565b50604082015181600201555050826001600160a01b03167ffb19596f003f3ab1d8e9d5c32c3d704ebc30f6114be8d8502801aba7aa698e1483426040516104a5929190610713565b60405180910390a2505050565b8280546104be906107d3565b90600052602060002090601f0160209004810192826104e05760008555610526565b82601f106104f957805160ff1916838001178555610526565b82800160010185558215610526579182015b8281111561052657825182559160200191906001019061050b565b50610532929150610536565b5090565b5b808211156105325760008155600101610537565b80356001600160a01b038116811461039557600080fd5b600060208284031215610573578081fd5b61057c8261054b565b9392505050565b60008060408385031215610595578081fd5b61059e8361054b565b915060208084013567ffffffffffffffff808211156105bb578384fd5b818601915086601f8301126105ce578384fd5b8135818111156105e0576105e0610835565b604051601f8201601f191681018501838111828210171561060357610603610835565b6040528181528382018501891015610619578586fd5b81858501868301378585838301015280955050505050509250929050565b6000815180845261064f8160208601602086016107a3565b601f01601f19169290920160200192915050565b600082516106758184602087016107a3565b9190910192915050565b60208082528251828201819052600091906040908185019080840286018301878501865b838110156106fa57888303603f19018552815180516001600160a01b03168452878101516060898601819052906106dc82870182610637565b928901519589019590955250948701949250908601906001016106a3565b509098975050505050505050565b901515815260200190565b6000604082526107266040830185610637565b90508260208301529392505050565b60208082526019908201527f4e6f7420617574686f72697a6564206173206973737565722e00000000000000604082015260600190565b60208082526017908201527f496e76616c696420686f6c64657220616464726573732e000000000000000000604082015260600190565b60005b838110156107be5781810151838201526020016107a6565b838111156107cd576000848401525b50505050565b6002810460018216806107e757607f821691505b6020821081141561080857634e487b7160e01b600052602260045260246000fd5b50919050565b600060001982141561082e57634e487b7160e01b81526011600452602481fd5b5060010190565b634e487b7160e01b600052604160045260246000fdfea26469706673582212203db4e793eab0ea1d9bbf6ac0c4a9947d90d209f265d37faa3f22964cf7a9cdc364736f6c63430008000033",
  "immutableReferences": {},
  "source": "// SPDX-License-Identifier: MIT\npragma solidity ^0.8.0;\n\ncontract CredentialVerification {\n    \n    struct Credential {\n        address issuer;\n        string credentialHash;\n        uint256 timestamp;\n    }\n\n    mapping(address => Credential[]) private credentials;\n\n    event CredentialIssued(address indexed holder, string credentialHash, uint256 timestamp);\n\n    modifier onlyIssuer() {\n        require(msg.sender != address(0), \"Not authorized as issuer.\");\n        _;\n    }\n\n    function issueCredential(address _holder, string memory _credentialHash) public onlyIssuer {\n        require(_holder != address(0), \"Invalid holder address.\");\n        Credential memory newCredential = Credential({\n            issuer: msg.sender,\n            credentialHash: _credentialHash,\n            timestamp: block.timestamp\n        });\n        \n        credentials[_holder].push(newCredential);\n        \n        emit CredentialIssued(_holder, _credentialHash, block.timestamp);\n    }\n\n    function getCredentials(address _holder) public view returns (Credential[] memory) {\n        return credentials[_holder];\n    }\n\n    function verifyCredential(address _holder, string memory _credentialHash) public view returns (bool) {\n        Credential[] memory holderCredentials = credentials[_holder];\n        \n        for (uint256 i = 0; i < holderCredentials.length; i++) {\n            if (keccak256(abi.encodePacked(holderCredentials[i].credentialHash)) == keccak256(abi.encodePacked(_credentialHash))) {\n                return true;\n            }\n        }\n        \n        return false;\n    }\n}\n",
  "sourcePath": "/mnt/d/phence-app/Decentralized-credential-verification/contracts/CredentialVerification.sol",
  "compiler": {
    "name": "solc",
    "version": "0.8.0+commit.c7dfd78e.Emscripten.clang"
  },
  "schemaVersion": "3.4.4",
  "updatedAt": "2024-11-06T16:27:02.555Z",
  "networkType": "ethereum",
  "devdoc": {
    "kind": "dev",
    "methods": {},
    "version": 1
  },
  "userdoc": {
    "kind": "user",
    "methods": {},
    "version": 1
  }
}