{
  "contractName": "CredentialVerification",
  "abi": [
    {
      "inputs": [],
      "stateMutability": "nonpayable",
      "type": "constructor"
    },
    {
      "anonymous": false,
      "inputs": [
        {
          "indexed": false,
          "internalType": "uint256",
          "name": "_value",
          "type": "uint256"
        }
      ],
      "name": "ValueSet",
      "type": "event"
    },
    {
      "inputs": [],
      "name": "value",
      "outputs": [
        {
          "internalType": "uint256",
          "name": "",
          "type": "uint256"
        }
      ],
      "stateMutability": "view",
      "type": "function",
      "constant": true
    },
    {
      "inputs": [
        {
          "internalType": "uint256",
          "name": "_value",
          "type": "uint256"
        }
      ],
      "name": "setValue",
      "outputs": [],
      "stateMutability": "nonpayable",
      "type": "function"
    }
  ],
  "bytecode": "0x608060405234801561001057600080fd5b50607b60005560eb806100246000396000f3fe6080604052348015600f57600080fd5b506004361060325760003560e01c80633fa4f24514603757806355241077146051575b600080fd5b603f60005481565b60405190815260200160405180910390f35b6060605c366004609d565b6062565b005b60008190556040518181527f012c78e2b84325878b1bd9d250d772cfe5bda7722d795f45036fa5e1e6e303fc9060200160405180910390a150565b60006020828403121560ae57600080fd5b503591905056fea2646970667358221220e109f9ad4d8fdac78822089e0743c11528f1c3d8a255876bd29d3ac97898d92d64736f6c63430008150033",
  "immutableReferences": {},
  "source": "// SPDX-License-Identifier: MIT\r\npragma solidity ^0.8.0;\r\n\r\ncontract CredentialVerification {\r\n    uint public value;\r\n\r\n    event ValueSet(uint _value);\r\n\r\n    constructor() {\r\n        value = 123; // Simple initialization\r\n    }\r\n\r\n    function setValue(uint _value) public {\r\n        value = _value;\r\n        emit ValueSet(_value); // Emit an event when the value is changed\r\n    }\r\n}\r\n",
  "sourcePath": "/mnt/d/phence-app/Decentralized-credential-verification/contracts/CredentialVerification.sol",
  "compiler": {
    "name": "solc",
    "version": "0.8.21+commit.d9974bed.Emscripten.clang"
  },
  "schemaVersion": "3.4.16",
  "updatedAt": "2024-11-05T19:09:19.019Z",
  "networkType": "ethereum",
  "devdoc": {
    "kind": "dev",
    "methods": {},
    "version": 1
  },
  "userdoc": {
    "kind": "user",
    "methods": {},
    "version": 1
  }
}